{
  "contractName": "Transaction",
  "abi": [
    {
      "anonymous": false,
      "inputs": [
        {
          "indexed": false,
          "name": "BS1",
          "type": "uint256"
        },
        {
          "indexed": false,
          "name": "Ibs",
          "type": "uint256"
        },
        {
          "indexed": false,
          "name": "STbs",
          "type": "uint256"
        }
      ],
      "name": "BStoCS",
      "type": "event"
    },
    {
      "anonymous": false,
      "inputs": [
        {
          "indexed": false,
          "name": "CS1",
          "type": "uint256"
        },
        {
          "indexed": false,
          "name": "Ics",
          "type": "uint256"
        },
        {
          "indexed": false,
          "name": "STcs",
          "type": "uint256"
        }
      ],
      "name": "CStoBS",
      "type": "event"
    },
    {
      "anonymous": false,
      "inputs": [
        {
          "indexed": false,
          "name": "BS3",
          "type": "uint256"
        },
        {
          "indexed": false,
          "name": "BS4",
          "type": "uint256"
        },
        {
          "indexed": false,
          "name": "Ibs",
          "type": "uint256"
        },
        {
          "indexed": false,
          "name": "STbs",
          "type": "uint256"
        }
      ],
      "name": "BStoSD",
      "type": "event"
    },
    {
      "anonymous": false,
      "inputs": [
        {
          "indexed": false,
          "name": "SD2",
          "type": "uint256"
        },
        {
          "indexed": false,
          "name": "SD3",
          "type": "uint256"
        },
        {
          "indexed": false,
          "name": "Isd",
          "type": "uint256"
        },
        {
          "indexed": false,
          "name": "STsd",
          "type": "uint256"
        }
      ],
      "name": "SDtoBS",
      "type": "event"
    },
    {
      "constant": false,
      "inputs": [],
      "name": "BerthingShipToCloudServer",
      "outputs": [],
      "payable": false,
      "stateMutability": "nonpayable",
      "type": "function"
    },
    {
      "constant": false,
      "inputs": [],
      "name": "CloudServerToBerthingShip",
      "outputs": [],
      "payable": false,
      "stateMutability": "nonpayable",
      "type": "function"
    },
    {
      "constant": false,
      "inputs": [],
      "name": "BerthingShipToSmartDevice",
      "outputs": [],
      "payable": false,
      "stateMutability": "nonpayable",
      "type": "function"
    },
    {
      "constant": false,
      "inputs": [],
      "name": "SmartDeviceToBerthingShip",
      "outputs": [],
      "payable": false,
      "stateMutability": "nonpayable",
      "type": "function"
    }
  ],
  "bytecode": "0x608060405273927e3c660c979554406f8fce9c6312a6ac3198e36000806101000a81548173ffffffffffffffffffffffffffffffffffffffff021916908373ffffffffffffffffffffffffffffffffffffffff1602179055507364c975b1df36a1fe27738069ac2467487c05ace1600160006101000a81548173ffffffffffffffffffffffffffffffffffffffff021916908373ffffffffffffffffffffffffffffffffffffffff16021790555073fbd4cc151d20242934baf18e5f143a3f73713679600260006101000a81548173ffffffffffffffffffffffffffffffffffffffff021916908373ffffffffffffffffffffffffffffffffffffffff16021790555034801561010e57600080fd5b506103528061011e6000396000f3fe60806040526004361061005c576000357c010000000000000000000000000000000000000000000000000000000090048063067249651461006157806311b12c7e1461007857806342e9eab21461008f5780637da51858146100a6575b600080fd5b34801561006d57600080fd5b506100766100bd565b005b34801561008457600080fd5b5061008d610141565b005b34801561009b57600080fd5b506100a46101ae565b005b3480156100b257600080fd5b506100bb61021b565b005b60006100c9600161029f565b905060006100d7600261029f565b905060006100e5600361029f565b905060004290507fbb1695f7184e0625eb1f18c9d15c9d26be3aff457e410b9a8869472d7647f99d848484846040518085815260200184815260200183815260200182815260200194505050505060405180910390a150505050565b600061014d600261029f565b905060004290506000610160600561029f565b90507f8aeb92d9112b4f043b1fcf6299e1ec814f72466363f70eff09e0d49ac854193b81848460405180848152602001838152602001828152602001935050505060405180910390a1505050565b60006101ba600261029f565b9050600042905060006101cd600561029f565b90507fce6f7d7404dd41537a046396921c5eaf1e1e5e15fc9011ff9955d2915e9fbc4881848460405180848152602001838152602001828152602001935050505060405180910390a1505050565b6000610227600161029f565b90506000610235600261029f565b90506000610243600361029f565b905060004290507f47846a7e4d64d3fa09519f3f9b8f644a54befaee1f319295b9ebbf49e8a69cfa848484846040518085815260200184815260200183815260200182815260200194505050505060405180910390a150505050565b600042443384604051602001808581526020018481526020018373ffffffffffffffffffffffffffffffffffffffff1673ffffffffffffffffffffffffffffffffffffffff166c010000000000000000000000000281526014018281526020019450505050506040516020818303038152906040528051906020012060019004905091905056fea165627a7a72305820032c03d4781d1993f0f73e6752a169834797137c3d07bae45fb4d62e9d2a8baf0029",
  "source": "// SPDX-License-Identifier: MIT\r\n\r\npragma solidity >=0.4.22 <0.9.0;\r\n\r\ncontract Transaction {\r\n    address berthingShip = 0x927e3C660c979554406f8FcE9c6312A6AC3198E3;\r\n    address cloudServer = 0x64c975b1df36A1fE27738069AC2467487C05aCe1;\r\n    address smartDevice = 0xfBd4cC151d20242934baf18e5f143A3f73713679;\r\n\r\n    function verifySignature(bytes32 _message, bytes memory _signature, address _signer) private pure returns (bool) {\r\n        // Recover signer address from signature\r\n        address recoveredSigner = recoverSigner(_message, _signature);\r\n        return recoveredSigner == _signer;\r\n    }\r\n    \r\n    // Function to recover signer from signature\r\n    function recoverSigner(bytes32 _message, bytes memory _signature) private pure returns (address) {\r\n        bytes32 r;\r\n        bytes32 s;\r\n        uint8 v;\r\n        \r\n        // Extract r, s, and v values from signature\r\n        assembly {\r\n            r := mload(add(_signature, 32))\r\n            s := mload(add(_signature, 64))\r\n            v := byte(0, mload(add(_signature, 96)))\r\n        }\r\n        \r\n        if (v < 27) {\r\n            v += 27;\r\n        }\r\n        \r\n        return ecrecover(_message, v, r, s);\r\n    }\r\n\r\n    function getRandomNumber(uint seed) internal view returns (uint256) {\r\n        return uint256(keccak256(abi.encodePacked(block.timestamp, block.difficulty, msg.sender, seed)));\r\n    }\r\n\r\n    event BStoCS (uint256 BS1, uint256 Ibs, uint256 STbs);\r\n    event CStoBS (uint256 CS1, uint256 Ics, uint256 STcs);\r\n    event BStoSD (uint256 BS3, uint256 BS4, uint256 Ibs, uint256 STbs);\r\n    event SDtoBS (uint256 SD2, uint256 SD3, uint256 Isd, uint256 STsd);\r\n\r\n    function BerthingShipToCloudServer () external {\r\n\r\n        //uint256 CSpub = getRandomNumber(1);\r\n        uint256 Ibs = getRandomNumber(2);\r\n        uint256 STbs = block.timestamp;\r\n        uint256 BS1 = getRandomNumber(5);\r\n\r\n        emit BStoCS( BS1,  Ibs,  STbs);\r\n    } \r\n\r\n    function CloudServerToBerthingShip() external {\r\n        //uint256 BSpub = getRandomNumber(1);\r\n        uint256 Ics = getRandomNumber(2);\r\n        uint256 STcs = block.timestamp;\r\n        uint256 CS1 = getRandomNumber(5);\r\n\r\n        emit CStoBS(CS1, Ics, STcs);\r\n    }  \r\n\r\n    function BerthingShipToSmartDevice() external {\r\n        uint256 BS3 = getRandomNumber(1);\r\n        uint256 BS4 = getRandomNumber(2);\r\n        uint256 Ibs = getRandomNumber(3);\r\n        uint256 STbs = block.timestamp;\r\n\r\n        emit BStoSD(BS3, BS4, Ibs, STbs);\r\n    }\r\n\r\n    function SmartDeviceToBerthingShip() external {\r\n        uint256 SD2 = getRandomNumber(1);\r\n        uint256 SD3 = getRandomNumber(2);\r\n        uint256 Isd = getRandomNumber(3);\r\n        uint256 STsd = block.timestamp;\r\n\r\n        emit SDtoBS(SD2, SD3, Isd, STsd);\r\n    }\r\n\r\n}\r\n\r\n\r\n\r\n\r\n// contract BerthingShip {\r\n\r\n//     // Function to verify timestamp\r\n//     function verifyTimestamp(uint256 _timestamp) private view returns (bool) {\r\n//         uint256 acceptableDelay = 300; // 300 seconds = 5 minutes\r\n//         return (_timestamp <= block.timestamp) && (block.timestamp - _timestamp <= acceptableDelay);\r\n//     }\r\n\r\n//     // Function to verify signature\r\n//     function verifySignature(bytes32 _message, bytes memory _signature, address _signer) private pure returns (bool) {\r\n//         // Recover signer address from signature\r\n//         address recoveredSigner = recoverSigner(_message, _signature);\r\n//         return recoveredSigner == _signer;\r\n//     }\r\n    \r\n//     // Function to recover signer from signature\r\n//     function recoverSigner(bytes32 _message, bytes memory _signature) private pure returns (address) {\r\n//         bytes32 r;\r\n//         bytes32 s;\r\n//         uint8 v;\r\n        \r\n//         // Extract r, s, and v values from signature\r\n//         assembly {\r\n//             r := mload(add(_signature, 32))\r\n//             s := mload(add(_signature, 64))\r\n//             v := byte(0, mload(add(_signature, 96)))\r\n//         }\r\n        \r\n//         if (v < 27) {\r\n//             v += 27;\r\n//         }\r\n        \r\n//         return ecrecover(_message, v, r, s);\r\n//     }\r\n\r\n//     function getRandomNumber(uint seed) internal view returns (uint256) {\r\n//         return uint256(keccak256(abi.encodePacked(block.timestamp, block.difficulty, msg.sender, seed)));\r\n//     }\r\n\r\n//     struct ParkingRequest {\r\n//         uint256 CSpub = getRandomNumber(1);\r\n//         uint256 Ibs = getRandomNumber(2);\r\n//         uint256 Rbs = getRandomNumber(3);\r\n//         uint256 STbs = block.timestamp;\r\n//         uint256 BS1 = getRandomNumber(5);\r\n//         uint256 P = getRandomNumber(6);\r\n//     }\r\n\r\n//     mapping(address => ParkingRequest) public parkingRequests;\r\n\r\n//     event ParkingRequested(address indexed requester, bytes32 bs1, bytes32 signature, bytes32 ibs, uint256 timestamp);\r\n//     event ParkingParametersReceived(bytes32 CS1, bytes32 SignCS, bytes32 Ics, uint256 STcs);\r\n//     event ParametersSentToIoT(bytes32 BS3, bytes32 BS4, bytes32 Sign1BS, bytes32 Ibs, uint256 STbs);\r\n//     event DataReceivedFromIoT(bytes32 sd2, bytes32 sd3, bytes32 signature, bytes32 isd, uint256 timestamp);\r\n\r\n//     // Function to request parking service\r\n//     function requestParkingService(bytes32 BS1, bytes32 SignBS, bytes32 Ibs, uint256 STbs) public {\r\n//         // Emit event\r\n//         emit ParkingRequested(msg.sender, BS1, SignBS, Ibs, STbs);\r\n//     }\r\n\r\n//     // Function to receive parameters from Cloud Server\r\n//     function receiveParametersFromCloud(bytes32 CS1, bytes32 SignCS, bytes32 Ics, uint256 STcs) public {\r\n//         // Verify timestamp and signature (implementation needed)\r\n//         require(verifyTimestamp(STcs), \"Timestamp verification failed\");\r\n//         require(verifySignature(_message, SignCS, _signer), \"Signature verification failed\");\r\n//         // Emit event\r\n//         emit ParkingParametersReceived(CS1, SignCS, Ics, STcs);\r\n//     }\r\n\r\n//     // Function to send parameters to Smart IoT Devices\r\n//     function sendParametersToIoT(bytes32 BS3, bytes32 BS4, bytes32 Sign1BS, bytes32 Ibs, uint256 STbs) public {\r\n//         // Verify timestamp and signature (implementation needed)\r\n//         require(verifyTimestamp(_timestamp), \"Timestamp verification failed\");\r\n//         require(verifySignature(_message, _signature, _signer), \"Signature verification failed\");\r\n//         // Emit event\r\n//         emit ParametersSentToIoT(BS3, BS4, Sign1BS, Ibs, STbs);\r\n//     }\r\n\r\n//     // Function to receive data from Smart IoT Devices\r\n//     function receiveDataFromIoT(bytes32 _sd2, bytes32 _sd3, bytes32 _signature, bytes32 _isd, uint256 _timestamp) public {\r\n//         // Verify timestamp and signature (implementation needed)\r\n//         require(verifyTimestamp(_timestamp), \"Timestamp verification failed\");\r\n//         require(verifySignature(_message, _signature, _signer), \"Signature verification failed\");\r\n//         // Emit event\r\n//         emit DataReceivedFromIoT(_sd2, _sd3, _signature, _isd, _timestamp);\r\n//     }\r\n    \r\n//     // Function to get parking request details\r\n//     function getParkingRequestDetails(address requester) public view returns (bytes32, bytes32, bytes32, uint256) {\r\n//         ParkingRequest storage request = parkingRequests[requester];\r\n//         return (request.bs1, request.signature, request.ibs, request.timestamp);\r\n//     }\r\n// }\r\n\r\n\r\n// contract CloudServer {\r\n\r\n//     // Function to verify timestamp\r\n//     function verifyTimestamp(uint256 _timestamp) private view returns (bool) {\r\n//         uint256 acceptableDelay = 300; // 300 seconds = 5 minutes\r\n//         return (_timestamp <= block.timestamp) && (block.timestamp - _timestamp <= acceptableDelay);\r\n//     }\r\n\r\n//     // Function to verify signature\r\n//     function verifySignature(bytes32 _message, bytes memory _signature, address _signer) private pure returns (bool) {\r\n//         // Recover signer address from signature\r\n//         address recoveredSigner = recoverSigner(_message, _signature);\r\n//         return recoveredSigner == _signer;\r\n//     }\r\n    \r\n//     // Function to recover signer from signature\r\n//     function recoverSigner(bytes32 _message, bytes memory _signature) private pure returns (address) {\r\n//         bytes32 r;\r\n//         bytes32 s;\r\n//         uint8 v;\r\n        \r\n//         // Extract r, s, and v values from signature\r\n//         assembly {\r\n//             r := mload(add(_signature, 32))\r\n//             s := mload(add(_signature, 64))\r\n//             v := byte(0, mload(add(_signature, 96)))\r\n//         }\r\n        \r\n//         if (v < 27) {\r\n//             v += 27;\r\n//         }\r\n        \r\n//         return ecrecover(_message, v, r, s);\r\n//     }\r\n\r\n//     struct BerthingRequest {\r\n//         bytes32 bsKey;\r\n//         bytes32 signature;\r\n//         bytes32 bsId;\r\n//         uint256 timestamp;\r\n//     }\r\n    \r\n//     mapping(bytes32 => bool) public processedRequests;\r\n    \r\n//     // Event emitted when a parking service request is processed\r\n//     event ParkingServiceProcessed(bytes32 indexed bsKey, bool success);\r\n    \r\n//     // Event emitted when parameters are sent to Berthing Ship\r\n//     event ParametersSentToBS(bytes32 indexed bsKey, bytes32 bsId, uint256 timestamp);\r\n    \r\n//     // Function to process parking service requests from Berthing Ship\r\n//     function processParkingServiceRequest(bytes32 _bsKey, bytes32 _signature, bytes32 _bsId, uint256 _timestamp) external {\r\n//         require(verifySignature(_message, _signature, _signer), \"Invalid signature\");\r\n//         require(verifyTimestamp(_timestamp), \"Invalid timestamp\");\r\n        \r\n//         // Mark the request as processed\r\n//         processedRequests[_bsKey] = true;\r\n        \r\n//         emit ParkingServiceProcessed(_bsKey, true);\r\n//     }\r\n\r\n//     // Function to send parameters to Berthing Ship\r\n//     function sendParametersToBS(bytes32 _bsKey, bytes32 _bsId, uint256 _timestamp) external {\r\n//         emit ParametersSentToBS(_bsKey, _bsId, _timestamp);\r\n//     }\r\n// }",
  "sourcePath": "C:\\Users\\HP\\desktop\\blockchain_project\\contracts\\transaction.sol",
  "compiler": {
    "name": "solc",
    "version": "0.5.1+commit.c8a2cb62.Emscripten.clang"
  },
  "schemaVersion": "3.4.16",
  "updatedAt": "2024-04-27T15:27:23.959Z",
  "networkType": "ethereum",
  "devdoc": {
    "methods": {}
  },
  "userdoc": {
    "methods": {}
  }
}